:020000040800F2
:10000000E8040020C101000855030008510300085E
:100010005303000809020008790B000800000000E3
:10002000000000000000000000000000C5050008FE
:100030000B02000800000000210400089D060008D3
:10004000DB010008DB010008DB010008DB01000820
:10005000DB010008DB010008DB010008DB01000810
:10006000DB010008DB010008DB010008DB01000800
:10007000DB010008DB010008DB010008DB010008F0
:10008000DB010008DB010008DB010008DB010008E0
:10009000DB010008DB010008DB010008DB010008D0
:1000A000DB010008FD060008DB010008DB01000899
:1000B000DB010008DB010008DB010008DB010008B0
:1000C000DB010008DB010008DB010008DB010008A0
:1000D000DB01000841090008A1090008DB01000854
:1000E000DB010008DB010008DB010008DB01000880
:1000F00059070008DB010008DB010008DB010008EC
:10010000DB010008DB010008DB010008DB0100085F
:10011000DB010008DB010008DB010008DB0100084F
:10012000DB010008DB010008DB010008DB0100083F
:10013000DB010008DB010008DB010008DB0100082F
:10014000DB010008DB010008DB010008DB0100081F
:10015000DB010008DB010008DB010008DB0100080F
:10016000DB010008DB010008DB010008DB010008FF
:10017000DB010008DB010008DB010008DB010008EF
:10018000DB010008DB010008DB010008DB010008DF
:10019000DB010008DB010008DB010008DB010008CF
:1001A000DB010008DB010008DB010008DFF80CD0F0
:1001B00000F018F800480047E90C0008E8040020A7
:1001C0000648804706480047FEE7FEE7FEE7FEE7F1
:1001D000FEE7FEE7FEE7FEE7FEE7FEE7A106000812
:1001E000AD010008064C074D06E0E06840F0010351
:1001F00094E8070098471034AC42F6D3FFF7DAFFD3
:10020000680D0008880D0008FEE7704770B586B0DD
:100210000121084600F006F90121102000F01EF926
:1002200000248DF8164001208DF8170002258DF866
:1002300015508DF81450400204901C4E04A930460D
:1002400000F038F88DF814506902049104A9304682
:1002500000F030F807220A21304600F069F8072242
:100260000921304600F064F84FF4E1300090ADF819
:100270000440ADF80640ADF80840ADF80C400C2045
:10028000ADF80A000A4C6946204600F00FFC00F069
:1002900062F8012240F22551204600F0ECFB0121DA
:1002A000204600F0B5FB06B070BD00000000024023
:1002B000001001402DE9F041002201274FF0030C0E
:1002C00007FA02F50B682B40AB422CD106685300AD
:1002D0000CFA03F4A64306600E79D0F800809E4025
:1002E00046EA080606600E79012E01D0022E12D1D0
:1002F0008668A64386604E79D0F808809E4046EA1C
:10030000080686604668AE43466045688E7996402A
:10031000B6B235434560C568A543C560CC799C40FD
:10032000C3681C43C460521C102AC9D3BDE8F081C5
:1003300010B54B07DB0E9A40C90800EB8100016A3B
:100340000F249C40A1430162016A1143016210BD68
:10035000FEE7FEE7704708B54FF4A06000F056F8DE
:1003600025208DF8000001208DF801008DF8020095
:100370008DF80300684600F015F808BD08B54FF485
:10038000C06000F043F826208DF8000001208DF8B1
:1003900001008DF802008DF80300684600F002F8B5
:1003A00008BD000030B50F23C27801250178002A6E
:1003B0001FD0154A126802F4E062C2F5E062C2F38F
:1003C0000722C2F10404D3404278A24084781C4042
:1003D0001443220101F1E02181F80024007800F0AB
:1003E0001F018D404009800000F1E020C0F800515D
:1003F00030BD01F01F0085404809800000F1E02079
:10040000C0F8805130BD00000CED00E00249084307
:1004100002490860704700000000FA050CED00E09A
:1004200070470000054A002903D01168014311609C
:1004300070471168814311607047000030380240F6
:10044000054A002903D01168014311607047116803
:10045000814311607047000040380240054A00297E
:1004600003D0116801431160704711688143116026
:10047000704700004438024070B5244B196801F001
:100480000C01234C00291ED0224E04291DD008291E
:100490001DD00460196801F0F00109091E4A545C7E
:1004A0000168E14041601C6804F4E054A40A145D52
:1004B00021FA04F484601B6803F460435B0BD25C94
:1004C000D140C16070BD0460E4E70660E2E70F4A16
:1004D000121F1168C1F38055116801F03F0135B159
:1004E000B6FBF1F11468C4F38814614305E0B4FB72
:1004F000F1F11468C4F3881461431268C2F3014235
:10050000521C5200B1FBF2F10160C3E7083802400F
:100510000024F40040787D010000002070B586B012
:1005200001210820FFF77EFF01214804FFF788FF23
:10053000224E072206213046FFF7FAFE0722052148
:100540003046FFF7F5FE00248DF8164001208DF8A7
:10055000170002258DF81450202104918DF81550B4
:1005600004A93046FFF7A6FE8DF8145040200490F1
:1005700004A93046FFF79EFE4FF4E1300090ADF83D
:100580000440ADF80640ADF80840ADF80C400C2032
:10059000ADF80A000A4C6946204600F087FAFFF7DA
:1005A000EDFE012240F22551204600F064FA0121BF
:1005B000204600F02DFA06B070BD0000000C02408D
:1005C00000440040704700001CB5002101910091DB
:1005D0002E4A106840F4803010604FF4A043106839
:1005E00000F4003000900198401C0190009810B970
:1005F00001989842F3D11068800302D50120009041
:1006000000E00091009801283FD120484030016867
:1006100041F0805101601E49086840F44040086084
:100620001A48083003680360036843F4004303601A
:10063000036843F4A0530360041F164B2360136840
:1006400043F08073136013689B01FCD50A6842F481
:1006500080320A604A68D203FCD50A6842F400324C
:100660000A604A689203FCD50B4A40F2057111609A
:10067000016821F003010160016841F0020101609D
:100680000168C1F381010229FAD11CBD0038024082
:1006900000700040195A4007003C024070470000BB
:1006A00010B51248016841F47001016010480168FA
:1006B00041F0010101600E4A002108321160026818
:1006C0000C4B1A400260031D0B4A1A60026822F4A8
:1006D0008022026006480C300160FFF775FF034975
:1006E0004FF000608039086010BD000088ED00E028
:1006F00000380240FFFFF6FE1030002410B5114C08
:100700000121204600F068F800281AD00121204677
:1007100000F053F80C4A1178642901D2491C117079
:10072000107803280DD300220121204600F060F844
:100730000649012008700648064A01781170002118
:10074000017010BD000001407A00002074000020FC
:10075000780000207600002010B5114C01212046C1
:1007600000F03AF800281AD00121204600F025F8C0
:100770000C4A1178642901D2491C117010780328A1
:100780000DD300220121204600F032F80649012055
:1007900008700648064A017811700021017010BDEA
:1007A000000401407B00002075000020790000203B
:1007B00077000020C94301827047C9430182704716
:1007C000002904D0018841F00101018070470188AF
:1007D00021F001010180704702460020138A0B407E
:1007E00092890A40002B02D0002A00D001207047D5
:1007F000002A03D082890A438281704782898A4312
:10080000828170473EB501210320FFF727FE0920B2
:10081000019044F24F60ADF800000020ADF80800F0
:10082000ADF802008DF80A00124C6946204600F02F
:1008300027F8114D6946284600F022F8012120468C
:10084000FFF7B8FF01212846FFF7B4FF002201217E
:100850002046FFF7CDFF002201212846FFF7C8FF01
:1008600001212046FFF7ACFF01212846FFF7A8FF32
:100870003EBD00000000014000040140416270479D
:1008800030B50288164C174DA0420DD0A8420BD0AF
:10089000B0F1804F08D0144B984205D0134B9842CA
:1008A00002D0134B984203D122F070034A881A43B6
:1008B000104B984206D0104B984203D022F440735C
:1008C0000A891A4302804A68C2620A880285A042E5
:1008D00001D0A84201D1897A01860121818230BDEF
:1008E00000000140000401400004004000080040F6
:1008F000000C0040001000400014004010B500F053
:1009000004F8BDE81040FFF77DBF08B54FF4E06084
:10091000FFF77CFD19208DF8000000208DF8010004
:1009200003208DF8020001208DF803006846FFF7D0
:1009300039FD2C208DF800006846FFF733FD08BD17
:1009400070B5124C40F225552946204600F073F848
:10095000002819D02946204600F052F8204600F021
:1009600003F90C4A0A4B11785854491C11700A4C6F
:10097000012211462046FFF73BFF00212046FFF7EA
:100980007DFF06490020087070BD00000010014086
:100990001000002078000020000001407A000020B4
:1009A00070B5124C40F225552946204600F043F818
:1009B000002819D02946204600F022F8204600F0F1
:1009C000D3F80C4A0A4B11785854491C11700A4C40
:1009D000012211462046FFF70BFF00212046FFF7BA
:1009E0004DFF06490020087070BD00000044004023
:1009F0008000002079000020000401407B000020DE
:100A000040F66A120A0A01219140C94301807047E9
:100A1000002904D0818941F4005181817047818986
:100A200021F40051818170470246002012880A4259
:100A300000D00120704770B5002440F66A12C1F35F
:100A4000421301F01F05012606FA05F2012B0CD016
:100A5000022B0DD0838A1340090A8E400088304053
:100A60000BB100B10124204670BD83891340F3E728
:100A7000038A1340F0E710B540F66A13C1F342133E
:100A800001F01F040121A140012B07D0022B07D048
:100A900014303AB102680A43026010BD0C30F8E726
:100AA0001030F6E702688A43026010BD7FB5044645
:100AB0000D46208A20F44051E88808432082A0890E
:100AC00041F20C618843A9882A8911436A8902434B
:100AD0001143A181A08A20F44071A8890843A08213
:100AE0006846FFF7C9FC1E48844202D01D48844274
:100AF00001D1039800E00298A189090408D500EB10
:100B0000C00101EB001029684900B0FBF1F007E0DB
:100B100000EBC00101EB001029688900B0FBF1F087
:100B20006422B0FBF2F109010B096FF018056B4369
:100B300000EB8300A3891D044FF0320307D503EBBC
:100B4000C000B0FBF2F000F00700084306E003EB42
:100B50000010B0FBF2F000F00F00084320817FBDD1
:100B600000100140001401408088C0F30800704765
:100B7000C1F3080181807047FEE710B504462046A6
:100B8000FFF7F6FF80212046FFF74EFF0028F9D03F
:100B900010BD2DE9F04107460D46164600243846A3
:100BA000295DFFF7EAFF641CB442F8D3BDE8F08189
:100BB0000FB4054B10B503A9044A029800F017F8CA
:100BC00010BC5DF814FB0000C50C00087C00002080
:100BD00002E008C8121F08C1002AFAD17047704706
:100BE000002001E001C1121F002AFBD170472DE94E
:100BF000F84F9946924688460546002706E0252884
:100C00000AD051464A4690476D1C7F1C2878002820
:100C1000F5D13846BDE8F88F002315F8011F1846B6
:100C20002E2915D115F8011F04232A290DD06FF0A4
:100C30002F022978A1F13004092C09D800EB80009B
:100C400002EB400008446D1CF3E758F8040B6D1CE0
:100C50002A78002ADDD0632A07D0732A0FD01046E5
:100C600051464A4690477F1C2AE018F8042B8DF81D
:100C7000002000218DF801106E46012103E058F894
:100C8000046B4FF0FF315A074FF0000401D409E024
:100C9000641C84420BDA8C42FADB325D002AF7D105
:100CA00005E0641C8C42FCDB305D0028F9D1274450
:100CB00004E016F8010B51464A469047641EF8D2EC
:100CC0006D1CA3E770B50446064DE1B22846FFF758
:100CD0004FFF80212846FFF7A7FE0028F9D02046C5
:100CE00070BD000000100140FFF790FAFFF716FCFE
:100CF000FFF704FEDFF84C90134D4FF0000899F811
:100D00000000012807D11148114902781148FFF766
:100D100040FF89F8008028780128F0D100240E4E89
:100D20000E4F05E0315D0EA0FFF742FF641CE4B2F8
:100D300038788442F6D30BA0FFF73AFF85F800809D
:100D4000DDE7000074000020750000207600002020
:100D500010000020004400408000002077000020A8
:100D6000256300000D0A0000880D00080000002027
:100D700080000000D00B0008080E00088000002052
:100D800068040000E00B00080000000001020304FA
:100D900001020304060708096400000000000000C7
:100DA0000000000000000000000000000000000043
:100DB0000000000000000000000000000000000033
:100DC0000000000000000000000000000000000023
:100DD0000000000000000000000000000000000013
:100DE0000000000000000000000000000000000003
:100DF00000000000000000000000000000000000F3
:080E00000000000000000000EA
:04000005080001AD41
:00000001FF
